{
  "contractName": "Torrents",
  "abi": [
    {
      "anonymous": false,
      "inputs": [
        {
          "indexed": false,
          "internalType": "uint256",
          "name": "id",
          "type": "uint256"
        },
        {
          "indexed": false,
          "internalType": "string",
          "name": "name",
          "type": "string"
        },
        {
          "indexed": false,
          "internalType": "uint256",
          "name": "size",
          "type": "uint256"
        },
        {
          "indexed": false,
          "internalType": "string",
          "name": "hash",
          "type": "string"
        },
        {
          "indexed": false,
          "internalType": "address",
          "name": "owner",
          "type": "address"
        }
      ],
      "name": "FileUploaded",
      "type": "event"
    },
    {
      "anonymous": false,
      "inputs": [
        {
          "indexed": false,
          "internalType": "string",
          "name": "hash",
          "type": "string"
        },
        {
          "indexed": false,
          "internalType": "string",
          "name": "torrentmaphash",
          "type": "string"
        }
      ],
      "name": "TorrentmapFileUploaded",
      "type": "event"
    },
    {
      "inputs": [],
      "name": "fileId",
      "outputs": [
        {
          "internalType": "uint256",
          "name": "",
          "type": "uint256"
        }
      ],
      "stateMutability": "view",
      "type": "function",
      "constant": true
    },
    {
      "inputs": [
        {
          "internalType": "uint256",
          "name": "",
          "type": "uint256"
        }
      ],
      "name": "files",
      "outputs": [
        {
          "internalType": "string",
          "name": "name",
          "type": "string"
        },
        {
          "internalType": "uint256",
          "name": "size",
          "type": "uint256"
        },
        {
          "internalType": "string",
          "name": "hash",
          "type": "string"
        },
        {
          "internalType": "address",
          "name": "owner",
          "type": "address"
        }
      ],
      "stateMutability": "view",
      "type": "function",
      "constant": true
    },
    {
      "inputs": [],
      "name": "torrentmapfileId",
      "outputs": [
        {
          "internalType": "uint256",
          "name": "",
          "type": "uint256"
        }
      ],
      "stateMutability": "view",
      "type": "function",
      "constant": true
    },
    {
      "inputs": [
        {
          "internalType": "string",
          "name": "",
          "type": "string"
        }
      ],
      "name": "torrentmapfiles",
      "outputs": [
        {
          "internalType": "string",
          "name": "hash",
          "type": "string"
        },
        {
          "internalType": "string",
          "name": "torrentmaphash",
          "type": "string"
        }
      ],
      "stateMutability": "view",
      "type": "function",
      "constant": true
    },
    {
      "inputs": [
        {
          "internalType": "string",
          "name": "_name",
          "type": "string"
        },
        {
          "internalType": "uint256",
          "name": "_size",
          "type": "uint256"
        },
        {
          "internalType": "string",
          "name": "_hash",
          "type": "string"
        }
      ],
      "name": "uploadFile",
      "outputs": [],
      "stateMutability": "nonpayable",
      "type": "function"
    },
    {
      "inputs": [
        {
          "internalType": "uint256",
          "name": "id",
          "type": "uint256"
        }
      ],
      "name": "getFile",
      "outputs": [
        {
          "internalType": "string",
          "name": "name",
          "type": "string"
        },
        {
          "internalType": "uint256",
          "name": "size",
          "type": "uint256"
        },
        {
          "internalType": "string",
          "name": "hash",
          "type": "string"
        },
        {
          "internalType": "address",
          "name": "owner",
          "type": "address"
        }
      ],
      "stateMutability": "view",
      "type": "function",
      "constant": true
    },
    {
      "inputs": [],
      "name": "getFilesCount",
      "outputs": [
        {
          "internalType": "uint256",
          "name": "",
          "type": "uint256"
        }
      ],
      "stateMutability": "view",
      "type": "function",
      "constant": true
    },
    {
      "inputs": [
        {
          "internalType": "string",
          "name": "_hash",
          "type": "string"
        }
      ],
      "name": "getSeeders",
      "outputs": [
        {
          "internalType": "address[]",
          "name": "",
          "type": "address[]"
        }
      ],
      "stateMutability": "view",
      "type": "function",
      "constant": true
    },
    {
      "inputs": [
        {
          "internalType": "string",
          "name": "_hash",
          "type": "string"
        }
      ],
      "name": "getSeederCount",
      "outputs": [
        {
          "internalType": "uint256",
          "name": "",
          "type": "uint256"
        }
      ],
      "stateMutability": "view",
      "type": "function",
      "constant": true
    },
    {
      "inputs": [
        {
          "internalType": "string",
          "name": "_hash",
          "type": "string"
        },
        {
          "internalType": "string",
          "name": "_torrentmaphash",
          "type": "string"
        }
      ],
      "name": "uploadTorrentmapFile",
      "outputs": [],
      "stateMutability": "nonpayable",
      "type": "function"
    },
    {
      "inputs": [
        {
          "internalType": "string",
          "name": "_hash",
          "type": "string"
        }
      ],
      "name": "getTorrentMap",
      "outputs": [
        {
          "internalType": "string",
          "name": "torrentmaphash",
          "type": "string"
        }
      ],
      "stateMutability": "view",
      "type": "function",
      "constant": true
    }
  ],
  "bytecode": "0x608060405234801561000f575f80fd5b5061166d8061001d5f395ff3fe608060405234801561000f575f80fd5b50600436106100a7575f3560e01c8063851c9d221161006f578063851c9d22146101665780638ceb237514610196578063a3322a12146101b2578063cbdb3545146101d0578063f4719fe014610200578063f4c714b414610231576100a7565b80632bfda313146100ab5780633532d39a146100de5780635491a5ad1461010e578063641b66e41461012c57806372ec4e451461014a575b5f80fd5b6100c560048036038101906100c09190610c62565b610264565b6040516100d59493929190610d65565b60405180910390f35b6100f860048036038101906100f39190610ee2565b610429565b6040516101059190610fe0565b60405180910390f35b6101166105cf565b6040516101239190611000565b60405180910390f35b6101346105d5565b6040516101419190611000565b60405180910390f35b610164600480360381019061015f9190611019565b6105db565b005b610180600480360381019061017b9190610ee2565b6106fe565b60405161018d91906110a1565b60405180910390f35b6101b060048036038101906101ab91906110c1565b610858565b005b6101ba61090c565b6040516101c79190611000565b60405180910390f35b6101ea60048036038101906101e59190610ee2565b610915565b6040516101f79190611000565b60405180910390f35b61021a60048036038101906102159190610ee2565b610984565b604051610228929190611137565b60405180910390f35b61024b60048036038101906102469190610c62565b610ac8565b60405161025b9493929190610d65565b60405180910390f35b60605f60605f805f808781526020019081526020015f206040518060800160405290815f8201805461029590611199565b80601f01602080910402602001604051908101604052809291908181526020018280546102c190611199565b801561030c5780601f106102e35761010080835404028352916020019161030c565b820191905f5260205f20905b8154815290600101906020018083116102ef57829003601f168201915b505050505081526020016001820154815260200160028201805461032f90611199565b80601f016020809104026020016040519081016040528092919081815260200182805461035b90611199565b80156103a65780601f1061037d576101008083540402835291602001916103a6565b820191905f5260205f20905b81548152906001019060200180831161038957829003601f168201915b50505050508152602001600382015f9054906101000a900473ffffffffffffffffffffffffffffffffffffffff1673ffffffffffffffffffffffffffffffffffffffff1673ffffffffffffffffffffffffffffffffffffffff16815250509050805f01518160200151826040015183606001519450945094509450509193509193565b60605f805f90505b6001548110156104925783805190602001205f808381526020019081526020015f206002016040516104639190611265565b60405180910390200361047f57818061047b906112a8565b9250505b808061048a906112a8565b915050610431565b505f8167ffffffffffffffff8111156104ae576104ad610dbe565b5b6040519080825280602002602001820160405280156104dc5781602001602082028036833780820191505090505b5090505f805b6001548110156105c35785805190602001205f808381526020019081526020015f206002016040516105149190611265565b6040518091039020036105b0575f808281526020019081526020015f206003015f9054906101000a900473ffffffffffffffffffffffffffffffffffffffff16838381518110610567576105666112ef565b5b602002602001019073ffffffffffffffffffffffffffffffffffffffff16908173ffffffffffffffffffffffffffffffffffffffff168152505081806105ac906112a8565b9250505b80806105bb906112a8565b9150506104e2565b50819350505050919050565b60035481565b60015481565b60405180608001604052808481526020018381526020018281526020013373ffffffffffffffffffffffffffffffffffffffff168152505f8060015481526020019081526020015f205f820151815f01908161063791906114b9565b5060208201518160010155604082015181600201908161065791906114b9565b506060820151816003015f6101000a81548173ffffffffffffffffffffffffffffffffffffffff021916908373ffffffffffffffffffffffffffffffffffffffff1602179055509050507f7fcf05412e0a6b4135507eb8c92d465d8da7a1f76ed44bf6b56714fa1c86d3f8600154848484336040516106da959493929190611588565b60405180910390a160015f8154809291906106f4906112a8565b9190505550505050565b60605f6002836040516107119190611621565b90815260200160405180910390206040518060400160405290815f8201805461073990611199565b80601f016020809104026020016040519081016040528092919081815260200182805461076590611199565b80156107b05780601f10610787576101008083540402835291602001916107b0565b820191905f5260205f20905b81548152906001019060200180831161079357829003601f168201915b505050505081526020016001820180546107c990611199565b80601f01602080910402602001604051908101604052809291908181526020018280546107f590611199565b80156108405780601f1061081757610100808354040283529160200191610840565b820191905f5260205f20905b81548152906001019060200180831161082357829003601f168201915b50505050508152505090508060200151915050919050565b60405180604001604052808381526020018281525060028360405161087d9190611621565b90815260200160405180910390205f820151815f01908161089e91906114b9565b5060208201518160010190816108b491906114b9565b509050507ff46680101b4ad033e4f6fac900b0e9c4ddb4c4efc213c2ffe9efd4af1daf08c782826040516108e9929190611137565b60405180910390a160035f815480929190610903906112a8565b91905055505050565b5f600154905090565b5f805f5b60015481101561097a5783805190602001205f808381526020019081526020015f2060020160405161094b9190611265565b604051809103902003610967578180610963906112a8565b9250505b8080610972906112a8565b915050610919565b5080915050919050565b6002818051602081018201805184825260208301602085012081835280955050505050505f91509050805f0180546109bb90611199565b80601f01602080910402602001604051908101604052809291908181526020018280546109e790611199565b8015610a325780601f10610a0957610100808354040283529160200191610a32565b820191905f5260205f20905b815481529060010190602001808311610a1557829003601f168201915b505050505090806001018054610a4790611199565b80601f0160208091040260200160405190810160405280929190818152602001828054610a7390611199565b8015610abe5780601f10610a9557610100808354040283529160200191610abe565b820191905f5260205f20905b815481529060010190602001808311610aa157829003601f168201915b5050505050905082565b5f602052805f5260405f205f91509050805f018054610ae690611199565b80601f0160208091040260200160405190810160405280929190818152602001828054610b1290611199565b8015610b5d5780601f10610b3457610100808354040283529160200191610b5d565b820191905f5260205f20905b815481529060010190602001808311610b4057829003601f168201915b505050505090806001015490806002018054610b7890611199565b80601f0160208091040260200160405190810160405280929190818152602001828054610ba490611199565b8015610bef5780601f10610bc657610100808354040283529160200191610bef565b820191905f5260205f20905b815481529060010190602001808311610bd257829003601f168201915b505050505090806003015f9054906101000a900473ffffffffffffffffffffffffffffffffffffffff16905084565b5f604051905090565b5f80fd5b5f80fd5b5f819050919050565b610c4181610c2f565b8114610c4b575f80fd5b50565b5f81359050610c5c81610c38565b92915050565b5f60208284031215610c7757610c76610c27565b5b5f610c8484828501610c4e565b91505092915050565b5f81519050919050565b5f82825260208201905092915050565b5f5b83811015610cc4578082015181840152602081019050610ca9565b5f8484015250505050565b5f601f19601f8301169050919050565b5f610ce982610c8d565b610cf38185610c97565b9350610d03818560208601610ca7565b610d0c81610ccf565b840191505092915050565b610d2081610c2f565b82525050565b5f73ffffffffffffffffffffffffffffffffffffffff82169050919050565b5f610d4f82610d26565b9050919050565b610d5f81610d45565b82525050565b5f6080820190508181035f830152610d7d8187610cdf565b9050610d8c6020830186610d17565b8181036040830152610d9e8185610cdf565b9050610dad6060830184610d56565b95945050505050565b5f80fd5b5f80fd5b7f4e487b71000000000000000000000000000000000000000000000000000000005f52604160045260245ffd5b610df482610ccf565b810181811067ffffffffffffffff82111715610e1357610e12610dbe565b5b80604052505050565b5f610e25610c1e565b9050610e318282610deb565b919050565b5f67ffffffffffffffff821115610e5057610e4f610dbe565b5b610e5982610ccf565b9050602081019050919050565b828183375f83830152505050565b5f610e86610e8184610e36565b610e1c565b905082815260208101848484011115610ea257610ea1610dba565b5b610ead848285610e66565b509392505050565b5f82601f830112610ec957610ec8610db6565b5b8135610ed9848260208601610e74565b91505092915050565b5f60208284031215610ef757610ef6610c27565b5b5f82013567ffffffffffffffff811115610f1457610f13610c2b565b5b610f2084828501610eb5565b91505092915050565b5f81519050919050565b5f82825260208201905092915050565b5f819050602082019050919050565b610f5b81610d45565b82525050565b5f610f6c8383610f52565b60208301905092915050565b5f602082019050919050565b5f610f8e82610f29565b610f988185610f33565b9350610fa383610f43565b805f5b83811015610fd3578151610fba8882610f61565b9750610fc583610f78565b925050600181019050610fa6565b5085935050505092915050565b5f6020820190508181035f830152610ff88184610f84565b905092915050565b5f6020820190506110135f830184610d17565b92915050565b5f805f606084860312156110305761102f610c27565b5b5f84013567ffffffffffffffff81111561104d5761104c610c2b565b5b61105986828701610eb5565b935050602061106a86828701610c4e565b925050604084013567ffffffffffffffff81111561108b5761108a610c2b565b5b61109786828701610eb5565b9150509250925092565b5f6020820190508181035f8301526110b98184610cdf565b905092915050565b5f80604083850312156110d7576110d6610c27565b5b5f83013567ffffffffffffffff8111156110f4576110f3610c2b565b5b61110085828601610eb5565b925050602083013567ffffffffffffffff81111561112157611120610c2b565b5b61112d85828601610eb5565b9150509250929050565b5f6040820190508181035f83015261114f8185610cdf565b905081810360208301526111638184610cdf565b90509392505050565b7f4e487b71000000000000000000000000000000000000000000000000000000005f52602260045260245ffd5b5f60028204905060018216806111b057607f821691505b6020821081036111c3576111c261116c565b5b50919050565b5f81905092915050565b5f819050815f5260205f209050919050565b5f81546111f181611199565b6111fb81866111c9565b9450600182165f8114611215576001811461122a5761125c565b60ff198316865281151582028601935061125c565b611233856111d3565b5f5b8381101561125457815481890152600182019150602081019050611235565b838801955050505b50505092915050565b5f61127082846111e5565b915081905092915050565b7f4e487b71000000000000000000000000000000000000000000000000000000005f52601160045260245ffd5b5f6112b282610c2f565b91507fffffffffffffffffffffffffffffffffffffffffffffffffffffffffffffffff82036112e4576112e361127b565b5b600182019050919050565b7f4e487b71000000000000000000000000000000000000000000000000000000005f52603260045260245ffd5b5f819050815f5260205f209050919050565b5f6020601f8301049050919050565b5f82821b905092915050565b5f600883026113787fffffffffffffffffffffffffffffffffffffffffffffffffffffffffffffffff8261133d565b611382868361133d565b95508019841693508086168417925050509392505050565b5f819050919050565b5f6113bd6113b86113b384610c2f565b61139a565b610c2f565b9050919050565b5f819050919050565b6113d6836113a3565b6113ea6113e2826113c4565b848454611349565b825550505050565b5f90565b6113fe6113f2565b6114098184846113cd565b505050565b5b8181101561142c576114215f826113f6565b60018101905061140f565b5050565b601f821115611471576114428161131c565b61144b8461132e565b8101602085101561145a578190505b61146e6114668561132e565b83018261140e565b50505b505050565b5f82821c905092915050565b5f6114915f1984600802611476565b1980831691505092915050565b5f6114a98383611482565b9150826002028217905092915050565b6114c282610c8d565b67ffffffffffffffff8111156114db576114da610dbe565b5b6114e58254611199565b6114f0828285611430565b5f60209050601f831160018114611521575f841561150f578287015190505b611519858261149e565b865550611580565b601f19841661152f8661131c565b5f5b8281101561155657848901518255600182019150602085019450602081019050611531565b86831015611573578489015161156f601f891682611482565b8355505b6001600288020188555050505b505050505050565b5f60a08201905061159b5f830188610d17565b81810360208301526115ad8187610cdf565b90506115bc6040830186610d17565b81810360608301526115ce8185610cdf565b90506115dd6080830184610d56565b9695505050505050565b5f81905092915050565b5f6115fb82610c8d565b61160581856115e7565b9350611615818560208601610ca7565b80840191505092915050565b5f61162c82846115f1565b91508190509291505056fea26469706673582212203fc7da69a780160d73965795342da0589458187b1dce357c030eb8252e41e7f364736f6c63430008150033",
  "immutableReferences": {},
  "source": "// SPDX-License-Identifier: MIT\r\npragma solidity ^0.8.0;\r\n\r\ncontract Torrents {\r\n    struct File {\r\n        string name;\r\n        uint256 size;\r\n        string hash;\r\n        address owner;\r\n        \r\n    }\r\n\r\n\r\n    mapping(uint256 => File) public files;\r\n    uint256 public fileId;\r\n    struct Torrentmapfiles{\r\n   \r\n        string hash;\r\n        string torrentmaphash;\r\n    }\r\n\r\n    event FileUploaded(uint256 id, string name, uint256 size, string hash, address owner);\r\n\r\n    function uploadFile(string memory _name, uint256 _size, string memory _hash) public {\r\n        files[fileId] = File(_name, _size, _hash, msg.sender);\r\n        emit FileUploaded(fileId, _name, _size, _hash, msg.sender);\r\n        fileId++;\r\n    }\r\n\r\n    function getFile(uint256 id) public view returns (string memory name, uint256 size, string memory hash, address owner) {\r\n        File memory file = files[id];\r\n        return (file.name, file.size, file.hash, file.owner);\r\n    }\r\n\r\n    function getFilesCount() public view returns (uint256) {\r\n        return fileId;\r\n    }\r\n\r\n    function getSeeders(string memory _hash) public view returns (address[] memory) {\r\n        uint256 seederCount;\r\n        for (uint256 i = 0; i < fileId; i++) {\r\n            if (keccak256(bytes(files[i].hash)) == keccak256(bytes(_hash))) {\r\n                seederCount++;\r\n            }\r\n        }\r\n        address[] memory seeders = new address[](seederCount);\r\n        uint256 index = 0;\r\n        for (uint256 i = 0; i < fileId; i++) {\r\n            if (keccak256(bytes(files[i].hash)) == keccak256(bytes(_hash))) {\r\n                seeders[index] = files[i].owner;\r\n                index++;\r\n            }\r\n        }\r\n        return seeders;\r\n    }\r\n\r\n    function getSeederCount(string memory _hash) public view returns (uint256) {\r\n        uint256 seederCount;\r\n        for (uint256 i = 0; i < fileId; i++) {\r\n            if (keccak256(bytes(files[i].hash)) == keccak256(bytes(_hash))) {\r\n                seederCount++;\r\n            }\r\n        }\r\n        return seederCount;\r\n    }\r\n    mapping(string => Torrentmapfiles) public torrentmapfiles;\r\n    uint256 public torrentmapfileId;\r\n    event TorrentmapFileUploaded(string hash, string torrentmaphash);\r\n\r\n    function uploadTorrentmapFile(string memory _hash, string memory _torrentmaphash) public {\r\n        torrentmapfiles[_hash] = Torrentmapfiles(_hash, _torrentmaphash);\r\n        emit TorrentmapFileUploaded(_hash, _torrentmaphash);\r\n        torrentmapfileId++;\r\n    }\r\n\r\n    function getTorrentMap(string memory _hash) public view returns (string memory torrentmaphash) {\r\n        Torrentmapfiles memory torrentmapfile = torrentmapfiles[_hash];\r\n        return (torrentmapfile.torrentmaphash);\r\n    }\r\n\r\n}",
  "sourcePath": "c:\\Users\\hp\\Desktop\\torrent-smartcontract\\contracts\\Torrents.sol",
  "compiler": {
    "name": "solc",
    "version": "0.8.21+commit.d9974bed.Emscripten.clang"
  },
  "schemaVersion": "3.4.16",
  "updatedAt": "2024-04-05T04:38:48.117Z",
  "networkType": "ethereum",
  "devdoc": {
    "kind": "dev",
    "methods": {},
    "version": 1
  },
  "userdoc": {
    "kind": "user",
    "methods": {},
    "version": 1
  }
}